:100000002DC000C1BCC043C042C041C040C03FC0C1
:100010003EC03DC05FA06F905BA4E718B7488C73EB
:10002000CC336897EB14EF106F907D82FD021FE0D8
:100030009F60F20DBF403FC056A9C13EA25D25DAC8
:10004000DD222FD045495051574142434A4C4D5330
:100050005455565960616A707173757811241FBECA
:10006000CFE9CDBF10E0A0E6B0E0E6EFF3E002C0DC
:1000700005900D92A636B107D9F720E0A6E6B0E0CC
:1000800001C01D92AA36B207E1F75BD1B2C1B8CF69
:1000900020E030E02817390724F400C02F5F3F4FDD
:1000A000F9CF08959C019FB590649FBD211531053E
:1000B00011F0C901EDCF08959C019FB59F7B9FBDB5
:1000C0002115310511F0C901E3CF08958F929F9258
:1000D000AF92BF92CF92DF92EF92FF924B015C0101
:1000E0007A018BB78F7B8BBFB89AC09881E08FBDA8
:1000F00089E083BF88E086BF83E089BD85E694E020
:10010000D1DF82E392E0D8DFC7010197C12CD12C67
:100110007601C39404C0CC0CDD1CEE1CFF1C8A9538
:10012000D2F7C114D104E104F104D9F0D701C6011A
:1001300088219921AA21BB21892B8A2B8B2B31F075
:1001400086E490E0AFDF83ED90E005C086E490E0C8
:10015000A9DF86E490E0B0DFF694E794D794C794E3
:10016000E0CF86E490E09EDF80E090E0FF90EF90AB
:10017000DF90CF90BF90AF909F908F909DCF1F92B8
:100180000F920FB60F9211240F900FBE0F901F9079
:100190001895109268008EE08093690010926700B5
:1001A0001092660085E090E090936100809360007B
:1001B0008BB780648BBF85B78D7F85BF85B7816026
:1001C00085BF08958BB780648BBF85B78D7F85BF52
:1001D00085B7816085BFB9981FBC83B7816083BF35
:1001E00083B7826083BFD5CF20916800222339F086
:1001F0002091660030916700FC013183208380915B
:10020000680008951F920F920FB60F9211242F933A
:100210003F934F935F936F937F938F939F93AF938E
:10022000BF93CF93EF93FF9382B7C6B3C2709AEE9A
:10023000980F9D3010F4CC5F04C087508E3008F0CA
:10024000A8DF209160003091610025303105E9F48C
:1002500080916900815080936900209166003091FF
:10026000670041E050E0BA0102C0660F771F8A952F
:10027000E2F7CB01822B932B90936700809366006B
:10028000509361004093600049C0F901EE59FF4F5F
:10029000408150E002C055954795CA95E2F7CA01E2
:1002A000837099278217930719F02430310510F0D5
:1002B00070DF35C0909361008093600020916900E9
:1002C0008230910521F421502093690015C08130BE
:1002D000910591F42150209369006091660070911E
:1002E000670002C0880F991F2A95E2F7862B972B8B
:1002F00090936700809366008091690081110EC021
:1003000040FD0CC086E090E0909361008093600017
:1003100081E0809368008BB78F7B8BBF12BEFF910B
:10032000EF91CF91BF91AF919F918F917F916F91FD
:100330005F914F913F912F910F900FBE0F901F90A3
:100340001895CF93DF9300D0CDB7DD2781E087BB31
:1003500039DF7894CE01019647DF8823D9F319DF7E
:1003600084E1E82E80E0F82E00E010E0F801EC5B7C
:10037000FF4FE491F0E089819A819770E817F907BF
:10038000D1F4F70165917491CB01A0E0B0E0BC011C
:10039000CD010530110518F48A67916E02C08F6D8A
:1003A000906240E250E092DE8FE59AEE0197F1F71D
:1003B00000C0000007DF0F5F1F4F92E0E90EF11C45
:1003C0000831110599F63798479AA99A8BB7806238
:1003D0008BBF18BA85B7877E806185BF85B780627D
:1003E00085BF889585B78F7D85BF8BB78F7D8BBF88
:0603F000B1CFF894FFCF2D
:0603F600050001919BFBD4
:00000001FF
